{
  "contractName": "SimpleStorage",
  "abi": [
    {
      "payable": true,
      "stateMutability": "payable",
      "type": "fallback"
    },
    {
      "constant": true,
      "inputs": [],
      "name": "owner",
      "outputs": [
        {
          "internalType": "address",
          "name": "",
          "type": "address"
        }
      ],
      "payable": false,
      "stateMutability": "view",
      "type": "function"
    },
    {
      "constant": false,
      "inputs": [],
      "name": "pay",
      "outputs": [],
      "payable": true,
      "stateMutability": "payable",
      "type": "function"
    },
    {
      "constant": false,
      "inputs": [],
      "name": "seedMoney",
      "outputs": [],
      "payable": true,
      "stateMutability": "payable",
      "type": "function"
    },
    {
      "constant": false,
      "inputs": [],
      "name": "Match",
      "outputs": [
        {
          "internalType": "uint256",
          "name": "",
          "type": "uint256"
        }
      ],
      "payable": true,
      "stateMutability": "payable",
      "type": "function"
    },
    {
      "constant": false,
      "inputs": [
        {
          "internalType": "uint256",
          "name": "x",
          "type": "uint256"
        }
      ],
      "name": "set",
      "outputs": [],
      "payable": true,
      "stateMutability": "payable",
      "type": "function"
    },
    {
      "constant": false,
      "inputs": [],
      "name": "transfer_to_account",
      "outputs": [],
      "payable": true,
      "stateMutability": "payable",
      "type": "function"
    },
    {
      "constant": true,
      "inputs": [],
      "name": "get_contract_balance",
      "outputs": [
        {
          "internalType": "uint256",
          "name": "",
          "type": "uint256"
        }
      ],
      "payable": false,
      "stateMutability": "view",
      "type": "function"
    },
    {
      "constant": true,
      "inputs": [],
      "name": "get_contract_address",
      "outputs": [
        {
          "internalType": "address",
          "name": "",
          "type": "address"
        }
      ],
      "payable": false,
      "stateMutability": "view",
      "type": "function"
    }
  ],
  "bytecode": "0x608060405273d025bb843c766f6d70aa9221f7532ad9ae1fd0ab600260006101000a81548173ffffffffffffffffffffffffffffffffffffffff021916908373ffffffffffffffffffffffffffffffffffffffff16021790555034801561006557600080fd5b506105ea806100756000396000f3fe60806040526004361061007b5760003560e01c8063c206c61e1161004e578063c206c61e1461012a578063cb1fdaa214610134578063f0bc153a1461018b578063f769e09c146101b65761007b565b80631b9265b81461007d5780633a47de241461008757806360fe47b1146100a55780638da5cb5b146100d3575b005b6100856101c0565b005b61008f6101c2565b6040518082815260200191505060405180910390f35b6100d1600480360360208110156100bb57600080fd5b8101908080359060200190929190505050610382565b005b3480156100df57600080fd5b506100e8610414565b604051808273ffffffffffffffffffffffffffffffffffffffff1673ffffffffffffffffffffffffffffffffffffffff16815260200191505060405180910390f35b61013261043a565b005b34801561014057600080fd5b506101496104ac565b604051808273ffffffffffffffffffffffffffffffffffffffff1673ffffffffffffffffffffffffffffffffffffffff16815260200191505060405180910390f35b34801561019757600080fd5b506101a06104b4565b6040518082815260200191505060405180910390f35b6101be6104bc565b005b565b60003447101561023a576040517f08c379a000000000000000000000000000000000000000000000000000000000815260040180806020018281038252600b8152602001807f6574686572206e6869206800000000000000000000000000000000000000000081525060200191505060405180910390fd5b600460405180604001604052803373ffffffffffffffffffffffffffffffffffffffff168152602001348152509080600181540180825580915050906001820390600052602060002090600202016000909192909190915060008201518160000160006101000a81548173ffffffffffffffffffffffffffffffffffffffff021916908373ffffffffffffffffffffffffffffffffffffffff1602179055506020820151816001015550505060006102f2600161053c565b9050600081141561030757600091505061037f565b6000600234029050600260009054906101000a900473ffffffffffffffffffffffffffffffffffffffff1673ffffffffffffffffffffffffffffffffffffffff166108fc829081150290604051600060405180830381858888f19350505050158015610377573d6000803e3d6000fd5b506001925050505b90565b806000819055506103928161053c565b6001819055506000600234816103a457fe5b049050600260009054906101000a900473ffffffffffffffffffffffffffffffffffffffff1673ffffffffffffffffffffffffffffffffffffffff166108fc829081150290604051600060405180830381858888f1935050505015801561040f573d6000803e3d6000fd5b505050565b600360009054906101000a900473ffffffffffffffffffffffffffffffffffffffff1681565b600260009054906101000a900473ffffffffffffffffffffffffffffffffffffffff1673ffffffffffffffffffffffffffffffffffffffff166108fc66b1a2bc2ec500009081150290604051600060405180830381858888f193505050501580156104a9573d6000803e3d6000fd5b50565b600030905090565b600047905090565b67016345785d8a000034101561053a576040517f08c379a000000000000000000000000000000000000000000000000000000000815260040180806020018281038252601f8152602001807f746f6f206c6f7720796f7520706f6f7220736f6e206f6620612062697463680081525060200191505060405180910390fd5b565b60008060023384604051602001808373ffffffffffffffffffffffffffffffffffffffff1673ffffffffffffffffffffffffffffffffffffffff1660601b8152601401828152602001925050506040516020818303038152906040528051906020012060001c816105a957fe5b0690508091505091905056fea265627a7a72315820927f0163eb25fc6f9b34399434c97d74c995b4698ba4e2aca26a350b20f0fb4364736f6c63430005100032",
  "source": "// SPDX-License-Identifier: MIT\npragma solidity >=0.4.21 <0.7.0;\n\ncontract SimpleStorage {\n  uint storedData;\n  uint store_x;\n  address payable account = 0xd025bb843c766f6d70AA9221f7532AD9Ae1FD0aB;\n  address public owner;\n  uint8 private clientCount;\n\n  struct Bet {\n    address payable player;\n    uint amt;\n  }\n\n  Bet[] bets;\n\n  // constructor() public payable {\n  //       require(msg.value == 30 ether, \"30 ether initial funding required\");\n  //       /* Set the owner to the creator of this contract */\n  //       owner = msg.sender;\n  //       clientCount = 0;\n  // }\n\n  function pay() public payable {}\n\n  function () external payable {}\n\n\n  function random(uint nonce) internal view returns (uint) {\n    uint randomnumber = uint(keccak256(abi.encodePacked(msg.sender, nonce))) % 2;\n    // randomnumber = randomnumber + 11;\n    return randomnumber;\n  }\n\n  function seedMoney() public payable{\n    require(msg.value >= 0.1 ether, \"too low you poor son of a bitch\");\n  }\n\n  function Match() public payable returns (uint){\n    require(address(this).balance >= msg.value, \"ether nhi h\");\n    bets.push(Bet(msg.sender, msg.value));\n\n    uint rand = random(1);\n\n    if(rand == 0) {\n      return(0);\n    }\n    else {\n      uint xx = msg.value * 2;\n      account.transfer(xx);\n      return(1);\n    }\n\n  }\n\n  function set(uint x) public payable {\n    storedData = x;\n    store_x = random(uint(x));\n    uint xx = msg.value / 2;\n    account.transfer(xx);\n  }\n\n  function transfer_to_account() external payable {\n    account.transfer(50000000000000000);\n    // _addr.send(0.1 ether);\n  }\n\n  function get_contract_balance() public view returns (uint){\n    return uint(address(this).balance);\n  }\n\n  function get_contract_address() public view returns (address) {\n    return address(this);\n  }\n\n  // to transfer to smart contract\n  //\n}\n",
  "sourcePath": "/home/sudhanshu/Documents/blockchain_projects/proj_3/contracts/SimpleStorage.sol",
  "compiler": {
    "name": "solc",
    "version": "0.5.16+commit.9c3226ce.Emscripten.clang"
  },
  "schemaVersion": "3.4.1",
  "updatedAt": "2021-05-13T15:36:16.512Z",
  "networkType": "ethereum",
  "devdoc": {
    "methods": {}
  },
  "userdoc": {
    "methods": {}
  }
}